:10000000E8C0000014C1000012C1000010C10000CF
:100010000EC100000CC100000AC1000008C10000B0
:1000200006C1000004C1000002C1000000C10000C0
:10003000FEC00000FCC00000FAC00000F8C00000D4
:10004000F6C00000F4C00000F2C00000F0C00000E4
:10005000EEC00000ECC00000EAC00000E8C00000F4
:10006000E6C0000075C400004AC40000E0C0000003
:10007000DEC00000DCC00000DAC00000D8C0000014
:10008000D6C00000D4C00000D2C00000D0C0000024
:10009000CEC00000CCC00000CAC000008FC4000069
:1000A000C6C00000C4C00000C2C00000C0C0000044
:1000B000BEC00000BCC00000BAC00000B8C0000054
:1000C000B6C00000B4C00000B2C00000B0C0000064
:1000D000AEC00000ACC00000AAC00000A8C0000074
:1000E000A6C0000000002200250028002B002E00E2
:1000F0003100340002010000050108010B01050573
:100100000505070508080808020202020A0A08088D
:1001100004040404010101010101010103030303BB
:1001200003030303040707070C0C0C0C0C0C0C0C4A
:100130000202020206060606060606060B0B0B0B5B
:100140000B0B0B0B01021020200808102040102080
:10015000408002010201080402010102040810208B
:100160004080804020100804020180040201804089
:1001700020100804020108040201010204081020F2
:100180004080010204081020408000000A0B020990
:100190000C0D0E0807030401000000000000000021
:1001A000000000000000000000000000000000004F
:1001B000000000000000121110000000000000000C
:1001C000000000000000000000000000000000002F
:1001D000010611241FBECFEFD1E2DEBFCDBF00E08C
:1001E0000CBF12E0A0E0B2E0EAE6FEE000E00BBFE8
:1001F00002C007900D92AA34B107D9F723E0AAE410
:10020000B2E001C01D92A539B207E1F710E0C9EED6
:10021000D0E000E005C021970109802FFE011BD628
:10022000C83ED10780E00807B1F724D51CC6E8CE48
:10023000282F30E0F901E657FE4F9491F901EC5B6D
:10024000FE4F449122503F4FF9012491222309F49B
:1002500031C0992309F191509231F0F4E92FF0E087
:100260008827EB5CFE4F8F4FF6C56301670147019E
:100270005B015F014C016A01700174017A017E012A
:10028000820188018C014C01900196019A018091B4
:1002900080008F7780938000E22FF0E0EE0FFF1F49
:1002A000EC51FF4FA591B4918FB7F894EC914E2B80
:1002B0004C938FBF0895809180008F7DEBCF80910C
:1002C0008000877FE7CF84B58F7784BDE5CF84B585
:1002D0008F7DFBCF8091B0008F778093B000DCCF13
:1002E0008091B0008F7DF9CF809190008F778093BF
:1002F0009000D2CF809190008F7DF9CF80919000B7
:10030000877FF5CF8091A0008F778093A000C4CF26
:100310008091A0008F7DF9CF8091A000877FF5CFDD
:10032000809120018F7780932001B6CF80912001AA
:100330008F7DF9CF80912001877FF5CFAF92BF925B
:10034000CF92DF92EF92FF920F931F93CF93DF93A1
:100350006C017B018B01040F151FEB015E01AE18D0
:10036000BF08C017D10759F06991D601ED91FC91F2
:100370000190F081E02DC6011995892B79F7C5010F
:10038000DF91CF911F910F91FF90EF90DF90CF9071
:10039000BF90AF900895FC01538D448D252F30E020
:1003A000842F90E0821B930B541710F0CF96089582
:1003B00001970895FC01918D828D981761F0A28DAF
:1003C000AE0FBF2FB11D5D968C91928D9F5F9F7375
:1003D000928F90E008958FEF9FEF0895FC01918D2B
:1003E000828D981731F0828DE80FF11D858D90E098
:1003F00008958FEF9FEF0895FC01918D228D892F35
:1004000090E0805C9F4F821B91098F73992708951C
:10041000FC01A48DA80FB92FB11DA35ABF4F2C9179
:10042000848D90E001968F739927848FA689B78970
:100430002C93A089B1898C91837080648C93938D67
:10044000848D981306C00288F389E02D80818F7D0A
:1004500080830895EF92FF920F931F93CF93DF93C2
:10046000EC0181E0888F9B8D8C8D98131AC0E889F0
:10047000F989808185FF15C09FB7F894EE89FF89BF
:100480006083E889F98980818370806480839FBF5D
:1004900081E090E0DF91CF911F910F91FF90EF905D
:1004A0000895F62E0B8D10E00F5F1F4F0F7311276D
:1004B000E02E8C8D8E110BC00FB607FCFACFE889A9
:1004C000F989808185FFF5CFCE01A2DFF2CFEB8DD8
:1004D000EC0FFD2FF11DE35AFF4FF0829FB7F89408
:1004E0000B8FEA89FB8980818062D0CFCF93DF9325
:1004F000EC01888D8823B1F0AA89BB89E889F98944
:100500008C9185FD03C0808186FD0CC00FB607FC71
:10051000F7CF8C9185FFF2CF808185FFEDCFCE01A3
:1005200077DFEACFDF91CF91089585ED8093BC000E
:100530008091BC0084FDFCCF1092C60208952091EA
:10054000A002260F3327331F21323105ECF420910E
:10055000C602FC0190E080E0243069F082E008955A
:10056000A091A0022191AC0142585D4FA40FB52F7C
:10057000B11D2C930196861798F38091A002680F05
:100580006093A00280E0089581E008950895CF93DC
:10059000DF93AC01E0917A02F0917B023097F1F0A9
:1005A00090917902809178029817C0F090E0292FFD
:1005B00030E02617370754F4D901A85ABD4F240F4D
:1005C000351FE90128812C939F5FF1CF10927902AA
:1005D00060937802CB01DF91CF911994DF91CF9195
:1005E00008950895E091790280917802E81730F437
:1005F000F0E0E85AFD4F808190E008958FEF9FEF83
:10060000089590917902809178022FEF3FEF98172B
:1006100048F4E92FF0E0E85AFD4F208130E09F5F79
:1006200090937902C901089580917802909179029E
:10063000891B990B0895CF93DF93CB01EA01642FB7
:100640007EDFCE01DF91CF910895CF93DF931F928C
:10065000CDB7DEB7698361E0CE01019670DF81E03E
:1006600090E00F90DF91CF91089590E080E00895A1
:10067000E82FF0E0DF01A050BE4F9C91690F883059
:10068000A8F570E08827E95BFC4F8F4FE4C34F0368
:10069000540359035E03630368036D03720370938D
:1006A000990060939800089570939B0060939A005E
:1006B000089570939D0060939C0008957093A90025
:1006C0006093A80008957093AB006093AA0008950A
:1006D0007093AD006093AC0008957093290160930E
:1006E0002801089570932B0160932A01089580FDDD
:1006F00012C080914C02662339F081110BC081E059
:1007000080934C02889A0895882321F010924C021D
:1007100081B311BA089580914B02662339F081119B
:10072000F9CF81E080934B02899A0895882391F351
:1007300010924B02EDCFFC0101900020E9F73197B8
:10074000AF01481B590BBC018CEE92E0F7CD8F92A4
:100750009F92AF92BF92CF92DF92FF920F931F931F
:10076000CF93DF93CDB7DEB7A1970FB6F894DEBF76
:100770000FBECDBFFF24F3949AE0892E912CA12CBB
:10078000B12C8091780290917902891B990B029784
:100790000CF4A0C089E893E034DF182F8091570251
:1007A000811156C01534C1F561E090E080E09FDF13
:1007B00060E081E090E09BDF00E06FEB802F58DF8E
:1007C0002FEF83ED90E3215080409040E1F700C08F
:1007D00000000F5F083089F7EFEFF3ED20E3E15001
:1007E000F0402040E1F700C0000060914C026F250E
:1007F00090E080E07CDF60914B026F2581E090E02B
:1008000076DF8FEF93EDE0E381509040E040E1F739
:1008100000C00000F0925702212F30E050E040E08D
:1008200019A28E010F5D1F4FCA01B901A5019401E4
:10083000F0D2605DF80162938F0121153105410509
:10084000510591F7309709F49CCFCF0174DF99CF10
:100850001E3199F410924F021092500210925102E0
:1008600010925202109253021092540210925502AA
:1008700010925602F0924E02CFCF1832B1F48FE4AC
:10088000C82E82E0D82E00E0F60161916F0184E766
:10089000860F873610F4802FEBDE0F5F0830A1F74C
:1008A00010924D0210924E02B7CF80914E028823D3
:1008B00009F4B2CF84E7810F873608F0ADCF80917D
:1008C0004D02E82FF0E0E15BFD4F10838F5F8093D6
:1008D0004D02A2CF89E893E094DEA1960FB6F8947A
:1008E000DEBF0FBECDBFDF91CF911F910F91FF9063
:1008F000DF90CF90BF90AF909F908F9008951F9200
:100900000F920FB60F9211240BB60F922F933F93B5
:100910004F935F936F937F938F939F93AF93BF9307
:10092000EF93FF938CEE92E073DDFF91EF91BF9117
:10093000AF919F918F917F916F915F914F913F9177
:100940002F910F900BBE0F900FBE0F901F90189518
:100950001F920F920FB60F9211240BB60F922F9386
:100960008F939F93EF93FF93E091FC02F091FD0230
:100970008081E0910203F091030382FD1DC090810C
:10098000809105038F5F8F7320910603821741F0DA
:10099000E0910503F0E0E451FD4F958F809305034E
:1009A000FF91EF919F918F912F910F900BBE0F9020
:1009B0000FBE0F901F9018958081F2CF1F920F925B
:1009C0000FB60F9211240BB60F922F933F934F93B4
:1009D0005F936F937F938F939F93AF93BF93EF93A7
:1009E000FF938091B900887F803609F44CC008F0ED
:1009F0003FC0883209F4A8C028F5803109F49CC0B2
:100A0000C8F4882309F4FAC0883009F495C0FF912E
:100A1000EF91BF91AF919F918F917F916F915F9176
:100A20004F913F912F910F900BBE0F900FBE0F90E3
:100A30001F901895883109F487C0803241F7809360
:100A4000C50214C0803409F49CC040F48033B9F36B
:100A50008833E9F68093C50285ECAFC0803509F490
:100A600084C0883509F495C0883489F65EDDCFCF1F
:100A7000883909F48CC038F5883729F050F4883665
:100A800011F0803721F683E08093C6021092C402F1
:100A900057C0883809F47BC0803919F0803809F0D4
:100AA000B6CF8091C402803208F071C0E091C402D8
:100AB00081E08E0F8093C4028091BB00F0E0EC5582
:100AC000FD4F80833DC0803B39F0E0F4803A09F46B
:100AD00079C0883A09F09BCF84E08093C6021092D7
:100AE000A1021092A002E0919E02F0919F0219953E
:100AF0008091A00281110FC081E08093A00210922A
:100B00007E0209C0803C09F4A7CF883C09F4A4CF39
:100B1000883B09F07CCFE091A10281E08E0F8093A9
:100B2000A102F0E0E258FD4F80818093BB009091DC
:100B3000A1028091A00229C08091EB028093BB00AA
:100B400085EC8093BC0063CF9091EA028091E9022A
:100B5000981758F5E091EA0281E08E0F8093EA023F
:100B6000F0E0E753FD4F8081E9CFE091EA0281E0B8
:100B70008E0F8093EA028091BB00F0E0E753FD4FB7
:100B800080839091EA028091E9029817C8F285E883
:100B9000D8CFE091EA0281E08E0F8093EA02809143
:100BA000BB00F0E0E753FD4F80838091C8028111C4
:100BB0005DCF81E08093C70284EA8093BC001092ED
:100BC000C60225CF85EC8093BC001092C6028091AE
:100BD000C402803230F4E091C402F0E0EC55FD4FE5
:100BE00010826091C40270E0E091A202F091A30231
:100BF00084EA92E019951092C40209CF1092C502BE
:100C000035CFECEEF2E01382128288EE93E0A0E0A2
:100C1000B0E084839583A683B7832CE032E03183F0
:100C2000208325EC30E03587248724EC30E03787BB
:100C3000268720EC30E0318B208B21EC30E0338BA9
:100C4000228B22EC30E0358B248B26EC30E0378B86
:100C5000268B118E128E138E148EE9E8F3E0138228
:100C6000128284839583A683B7838EE192E0918379
:100C70008083089511BA81B3836081BB1DB810923F
:100C8000010110920A018DB188638DB98091010133
:100C90008A638093010180910A01886180930A012F
:100CA0008EB11EB8809102011092020180910B0159
:100CB00010920B018AEA809390008093A0008093A9
:100CC000200183E0809391008093A1008093210113
:100CD00010929500109294001092A5001092A4001A
:100CE000109225011092240180E88FBF61E090E00E
:100CF00080E0FDDC61E081E090E0F9DCC0E068ECE0
:100D00008C2FB6DCCF5FC830D1F72FEF81EE94E0A7
:100D1000215080409040E1F700C00000E091FC02CB
:100D2000F091FD0282E08083E091F802F091F902F7
:100D30001082E091FA02F091FB0280E18083109230
:100D40000403E0910003F091010386E08083E091C9
:100D5000FE02F091FF02808180618083E091FE02BB
:100D6000F091FF02808188608083E091FE02F09123
:100D7000FF02808180688083E091FE02F091FF0293
:100D800080818F7D80838CE292E0D5DC87E492E0E5
:100D9000D2DC61E090E080E0AADC61E081E090E0FC
:100DA000A6DC109279021092780210927D021092C5
:100DB0007C021092C60281E08093C8021092C702A2
:100DC00084E136DA85E134DA8091B9008E7F809350
:100DD000B9008091B9008D7F8093B90088E4809339
:100DE000B80085E48093BC0086EC92E090939F026B
:100DF00080939E0287EC92E09093A3028093A202DC
:100E0000C093BA0087EA93E090937B0280937A02C2
:100E1000FFCFA1E21A2EAA1BBB1BFD010DC0AA1F0A
:100E2000BB1FEE1FFF1FA217B307E407F50720F053
:100E3000A21BB30BE40BF50B661F771F881F991FCE
:100E40001A9469F760957095809590959B01AC0117
:100E5000BD01CF010895EE0FFF1F881F8BBF0790C4
:0A0E6000F691E02D1994F894FFCFED
:100E6A00000000000000FB00000000002A029E01B2
:100E7A00CB017602FC01DA01EE0100000000250335
:100E8A001B033503F10214030103F202496E69746C
:100E9A0069616C697A6174696F6E20436F6D706CF9
:0A0EAA006574652E2E2E000D0A005F
:00000001FF
